:020000040000FA
:100000000206EBC2AFF5086183FFFFC2AFF50861DE
:1000100095FFFFC2AFF50861A7FFFFC2AFF508610A
:10002000B9FFFFC2AFF50861CBFFFFC2AFF50861B2
:10003000DDFFFFC2AFF50861EFFFFFC2AFF508813A
:1000400001FFFFC2AFF5088113FFFFC2AFF50881C2
:1000500025FFFFC2AFF5088137FFFFC2AFF508816A
:1000600049FFFFC2AFF508815BFFFFC2AFF5088112
:100070006DFFFFC2AFF508817FFFFFC2AFF50881BA
:1000800091FFFFC2AFF50881A3FFFFC2AFF5088162
:10009000B5FFFFFF758701002274F71205B8E9FE6E
:1000A000750A00750B08780A1206BC7C807D017AFF
:1000B000007B001204CB7402120679900186E0F5F1
:1000C0000AA3E0F50B7409780A1206CDE50A2EF5AD
:1000D0000A74016E7006744E250AF50A53B4F3755E
:1000E000BC0075BC007CFC7D077A047B00EEF91235
:1000F00002F374012EFF801574066F70027F547C2A
:10010000007D087A007B00EFF91202F30FEFC39530
:100110000A40E5E5BDFBE5BCFA7F0202061E74F16C
:100120001205B8890EEAFEEBFF53BEFBE59DA2E681
:1001300050FAE5C654804449F5C6E59E547F6449AB
:1001400070F853C67FE59EA2E740FA53C680E59E4D
:10015000547F70FA43BE049062707408F0A90E12C6
:1001600000998A0A8B0B850A0C850B0D8E828F8372
:10017000E0650C7004A3E0650D7070E50EF50A757E
:100180000B00E50A75F000A4C50AA8F075F002A4FA
:1001900028F875F000E50BA428F50B8E828F83E01C
:1001A000F8A3E0F98E828F83A3A3E8F0A3E9F08E91
:1001B000828F8374FFF0A374FFF078807909E4E9FB
:1001C000F8F5D575D48075100175110078101206F8
:1001D000BCEEFCEFFDAA0AAB0B120550740212062E
:1001E00079C2AF75C9AB75C95B80FE7F0802061E78
:1001F00074FC120693750A04750B00780A1206BC8B
:100200007402120707AC82AD837A007B0079061274
:1002100004CB7402120679851A82E0F47003A3E01D
:10022000F46047851A82851B83E0F8A3E0F9E8496A
:100230006038851A82851B83E0F8A3E0F974021206
:100240000707E0687003A3E06970107509010230C8
:1002500030C2AF75C9AB75C95B80FE851A82851B3C
:1002600083AA82AB83790612011E780A1206BC7437
:1002700002120707AC82AD837A007B007901120479
:10028000CB7402120679851A82E0F47003A3E0F4BD
:100290006051851A82851B83E0F8A3E0F9E8496084
:1002A000427402120707E0F8A3E0F9851A82851B61
:1002B00083E0687003A3E0697010750900020830DC
:1002C000C2AF75C9AB75C95B80FE74FF68700374FB
:1002D000FF69700F851A82851B83AA82AB8379011F
:1002E00012011E43BE03120094C2AF75C9AB75C99B
:1002F0005B80FE74F71205B8E9FEE5C7FF740F5E78
:10030000F50A750B00740B780A1206A9EA2400F8A6
:10031000EB350BF9E82400E93480F9A2AFE433F5BA
:100320000AC2AFEEC4540FFAE5C754F84AF5C7E95C
:10033000900980F0E8A3F0A37470F0A374BDF0EC12
:10034000900985F0EDFC900984E054E04CF09009B0
:10035000867420F0A37442F07409F5D575D48075C5
:10036000D601000000000000000000000075D70169
:10037000E5D7A2E040FA8FC7E50AA2E092AF7F027C
:1003800002061EE5096007E508D2AF023033E50832
:10039000D2AF020833E5096007E508D2AF02303B6F
:1003A000E508D2AF02083BE5096007E508D2AF02D5
:1003B0003043E508D2AF020843E5096007E508D2FB
:1003C000AF02304BE508D2AF02084BE5096007E504
:1003D00008D2AF023053E508D2AF020853E50960F6
:1003E00007E508D2AF02305BE508D2AF02085BE553
:1003F000096007E508D2AF023063E508D2AF020812
:1004000063E5096007E508D2AF02306BE508D2AFBB
:1004100002086BE5096007E508D2AF023073E50812
:10042000D2AF020873E5096007E508D2AF02307B5E
:10043000E508D2AF02087BE5096007E508D2AF0204
:100440003083E508D2AF020883E5096007E508D2EA
:10045000AF02308BE508D2AF02088BE5096007E5F3
:1004600008D2AF023093E508D2AF020893E50960E5
:1004700007E508D2AF02309BE508D2AF02089BE542
:10048000096007E508D2AF0230A3E508D2AF020841
:10049000A3E5096007E508D2AF0230ABE508D2AFAB
:1004A0000208ABE5096007E508D2AF0230B3E50802
:1004B000D2AF0208B3E5096007E508D2AF0230BB4E
:1004C000E508D2AF0208BB000204C774F51205B8F4
:1004D000890A740F550AF50C750D00740B780C120F
:1004E00006A9EA2400F8EB3480F9E82400E9350D88
:1004F000F9E5C7F50BA2AFE433F50CC2AFE50AC4CA
:10050000540FFAE5C754F84AF5C7740B120707E011
:10051000FAA3E0FB801C88828983E08C828D83F0C3
:1005200088828983A3A882A9838C828D83A3AC82CD
:10053000AD83EAFEEBFFEE24FF1AEF34FFFBEE4F34
:1005400070D4850BC7E50CA2E092AF7F0402061EB3
:1005500074F71205B8ED900980F0ECA3F0A3746273
:10056000F0A37473F0A3E0541FF07409120707E0BE
:10057000F50AA3E0F50BE50A333354FC900985F046
:10058000900984E4F07406780A1206CDE50AF0902A
:1005900009867412F0A37442F053D1FE75D601EAB5
:1005A000906271F0EBA3F0906270E0D2E1F0E0A213
:1005B000E740FB7F0202061E251AC582C0E0E51B4C
:1005C00034FFC583C0E0E51AC3958224F910AF0853
:1005D00085831B85821A800885831B85821AD2AF8A
:1005E000CEF0A3E520F0A3780AE608F0A3DEFAEF48
:1005F000F0A3E58124FBF8E608F0A3E608F0A308E1
:1006000008E608F0A3E608F0A315811581D0E0FE06
:10061000D0E0F815811581E8C0E0EEC0E022851B2E
:1006200083851A82E0A3FEE0A3F520780AE0A3F612
:1006300008DFFAE0A3FFE0A3C0E0E0A3C0E0E0A38E
:10064000C0E0E0A3C0E010AF0885821A85831B805C
:100650000885821A85831BD2AFD083D08222251AC7
:10066000F58210AF08F51A4002151B8008F51A40F4
:1006700002151BD2AF851B8322C0D0251A10AF08EC
:10068000F51A5002051B8008F51A5002051BD2AF5F
:10069000D0D022251A10AF08F51A4002151B800889
:1006A000F51A4002151BD2AF22700422600D18C645
:1006B000C333C608C633C6D5E0F4182274028000DE
:1006C000C0E0F40412065ED0E01206FA22600C08C4
:1006D000C6C313C618C613C6D5E0F422120716B94E
:1006E00000030206E51201F012071175D0007581B2
:1006F0003F751A80751B010206DCCAC0E0E6F0A354
:1007000008DAFAD0E0FA22251AF582E4351BF583DF
:100710002200000080FB790122FFFFFFFFFFFFFFA7
:10072000FFFFFFFFFFFFFFFFFFFFFFFFFFFFFFFFD9
:10073000FFFFFFFFFFFFFFFFFFFFFFFFFFFFFFFFC9
:10074000FFFFFFFFFFFFFFFFFFFFFFFFFFFFFFFFB9
:10075000FFFFFFFFFFFFFFFFFFFFFFFFFFFFFFFFA9
:10076000FFFFFFFFFFFFFFFFFFFFFFFFFFFFFFFF99
:10077000FFFFFFFFFFFFFFFFFFFFFFFFFFFFFFFF89
:10078000FFFFFFFFFFFFFFFFFFFFFFFFFFFFFFFF79
:10079000FFFFFFFFFFFFFFFFFFFFFFFFFFFFFFFF69
:1007A000FFFFFFFFFFFFFFFFFFFFFFFFFFFFFFFF59
:1007B000FFFFFFFFFFFFFFFFFFFFFFFFFFFFFFFF49
:1007C000FFFFFFFFFFFFFFFFFFFFFFFFFFFFFFFF39
:1007D000FFFFFFFFFFFFFFFFFFFFFFFFFFFFFFFF29
:1007E000FFFFFFFFFFFFFFFFFFFFFFFFFFFFFFFF19
:1007F000FFFFFFFFFFFFFFFFFFFFFFFFFFFFFFFF09
:04000005000006EB06
:00000001FF
